:100000005808002089280000E70C0000E70C0000D9
:10001000E70C0000E70C0000E70C00000000000007
:10002000000000000000000000000000E70C0000DD
:10003000E70C000000000000E70C0000E70C0000E7
:1000400038B504000D00290020002268126890478E
:1000500031BD10B50400200021684968884710BDF3
:1000600010B50400200021688968884710BD01721E
:100070007047007A7047012141727047407A70479B
:1000800038B504000D00FF20DFF8681888600020F4
:10009000DFF8601808600020DFF85818486000207A
:1000A000DFF85018C1F818040020DFF84818C1F82C
:1000B00014040120DFF83C1881F82004DFF8380828
:1000C00000F030FC0100002901D0080011E0DFF849
:1000D0002C08DFF82C28801AC20800200300934265
:1000E00006D2DFF8200800EB830003805B1CF6E7F4
:1000F000002032BDDFF80408DFF80418401AC008F9
:10010000704770B504000D00EDB2002D15D0FFF75B
:10011000F1FF0100002002008A420CD2DFF8E40760
:1001200000EB820358882668B04202D1226000208A
:1001300004E0521CF0E7052000E0002070BD11B57E
:1001400081B00C002100C9B201A8FFF7DAFF002836
:1001500006D1DFF8B407019900EBC100006800E0A8
:10016000002016BD10B40200DFF89C0700EBC203AC
:10017000C9B2012906D011D3032909D005D3042916
:1001800009D00BE0022420000AE00424200007E04C
:100190001C79200004E05C79200001E000242000AC
:1001A000C0B210BC704730B402000020137813F0C6
:1001B000030F04D01368C3F38003002B28D0136807
:1001C000C3F38003002B17D0137813F00303012B24
:1001D00002D0022B08D00EE00B681468C4F383141D
:1001E000A41CE3180B6011E00B681468A40DA41C98
:1001F000E3180B600AE009E00B6814681568C5F3A2
:10020000891515EB9454641CE3180B600123180046
:10021000C0B230BC7047F0B585B00024DFF8EC0602
:1002200000F0CAFCDFF8E80600F0C6FCDFF8C40600
:1002300040680090DFF8BC068568DFF8B8060099D2
:10024000294000EB810010F10C0669463000FFF7F1
:10025000AAFF002808D0DFF89C060099294000EB8F
:1002600081000C300600F0E700200700022F0ED2BC
:10027000DFF880060099294000EB8100C06801A9E1
:1002800041F827000098401C00907F1CEEE7019881
:1002900010F0030001280CD0022814D1BDF80A0088
:1002A000040000980199890DC91C10EB9100009081
:1002B00009E0BDF80A00040000980199C1F3831118
:1002C00008180090FFE7DFF8480600F07CFC01000A
:1002D000002903D00098DFF81C265060A4B220004B
:1002E00005B0F0BD80B50021DFF8280600F014FC51
:1002F000010081F3100002BD2DE9F84304000D0058
:1003000016001F00DDF820805FEA1449FFF7EAFFBE
:10031000DFF8E0157A1C18EA020201EB820159EAC3
:100320000042CA60DFF8CC1518EA070201EB82012F
:100330000C310A6864F3C5020A600A6866F3891220
:100340000A600A6865F39F220A6001220B6862F363
:1003500001030B600A6832F004020A60BDE8F18311
:100360002DE9F04704000D001600A71C5FF00108FE
:10037000002000F045FCDFF87C0500682860DFF80D
:1003800074058068401CDFF86C150968401ADFF8B6
:100390006415496811EB0009B9451AD20121DFF84B
:1003A000740500F0E9FBFFF736FF82465146DFF89F
:1003B000640500F0E1FBDFF83C058068401CDFF8D5
:1003C00034150968401ADFF82C1549680818814669
:1003D000E2E75FFA88F8B8F1000F27D000210800A3
:1003E000F6B2002E07D0012161F3010050F00400A5
:1003F00064F3891006E0022161F3010050F004006B
:1004000064F39F50DFF8EC14DFF8E8241268DFF89B
:10041000E4349B681A4001EB82010C310860DFF87C
:10042000D4241268BA18DFF8CC341A60002000F027
:10043000ECFB4046C0B2BDE8F0872DE9FC47040064
:100440000D0016001F00DFF8AC04D0F80880012270
:1004500001A93800FFF784FF00281CD0019810F193
:10046000020900208246BA450DD2DFF8880418EA56
:10047000090100EB810056F82A10C16019F1010949
:100480001AF1010AEFE7CDF80080019B3A0029003C
:100490002000FFF731FFDFF85C0490F8200400280B
:1004A00003D000F055F80028FBD1BDE8F38738B53C
:1004B00004000D000023002229002000FFF7BDFFEB
:1004C00031BD70B582B004000D0016000096012306
:1004D0006A4629002000FFF7B0FF73BDF0B583B076
:1004E00004000D0016001F000096019702236A46C3
:1004F00029002000FFF7A1FFF7BD2DE9F04786B0E6
:1005000004000D0016001F00DDF83880DDF83C9077
:10051000DDF840A000960197CDF80880CDF80C904A
:10052000CDF810A005236A4629002000FFF785FFBB
:1005300006B0BDE8F087DFF8BC034068DFF8B4130D
:100540000968884201D1012000E00020C0B2704754
:100550002DE9F04F8BB0FFF7EEFF002801D000200F
:1005600069E10020DFF88C13C1F81804BFF34F8F46
:10057000DFF8800340680090DFF87803806801901E
:10058000DFF870030099019A114000EB81000C30F4
:100590000690002400250020059069460698FFF784
:1005A00002FE002817D00098DFF848130968884237
:1005B00007D3DFF840030068DFF8381348600020F5
:1005C00039E1DFF830030099019A114000EB810016
:1005D0000C300690E1E700200600022E0ED2C5483E
:1005E0000099019A114000EB8100C06802A941F80E
:1005F00026000098401C0090761CEEE7029810F050
:100600000300022840F081800298800D0990029832
:10061000800D502802DA0298870D00E050270298DA
:1006200067F39F50029017F1080008900298C0F3FA
:10063000C20005900899B04800F07AF90400002C37
:1006400000F0AA80200000F0DAF92B00082202A9AD
:10065000200000F045FA08350198401C0099019AE5
:100660001140401A5FEA8008B84539D2B8F1000F4E
:1006700008D0A0480099019A114000EB810010F1C8
:100680000C0901E0DFF89092B8F1000F01D0C246EA
:1006900000E0BA46B8F1000F02D0DFF87CB201E00A
:1006A0005FF0000BB8F1000F02D0B7EB080000E0DC
:1006B00000208DF81C002B005FFA8AFA524649464A
:1006C000200000F00DFA55FA8AF5BBF1000F15D0A5
:1006D0002B009DF81C205946200000F001FA0DE087
:1006E00084480099019A114000EB810010F10C0937
:1006F0002B003A004946200000F0F2F900980999D1
:10070000C91C10EB9100009046E0029810F0030025
:10071000012841D10298C0F38310062803DA029819
:10072000C0F3831000E00620029960F38911029162
:100730000298C0F38310871C0298C0F3C200059092
:10074000B9006D4800F0F4F80400002C24D020001B
:1007500000F055F92B00082202A9200000F0C0F992
:100760000835002006000298C0F38310864213D299
:100770000098411C00912B0004225E49DDF804C062
:100780001CEA000001EB800010F10C01200000F0D9
:10079000A7F92D1D761CE6E7002C33D05548D0F87C
:1007A00010745448D0F81804002803D0200000F03A
:1007B0002DF939E0002F13D05FF000083800FFF763
:1007C0005DFC002801D0012080465FFA88F8B8F16E
:1007D000000F03D021003800FFF732FC7F68E9E703
:1007E000200000F013F9002000F00AFA4148D0F888
:1007F0001804002802D100983E494860002000F00B
:1008000004FA11E03B48D0F81074002F04D03800EF
:10081000FFF726FC7F68F8E740494148008800045C
:1008200050F00200FFF743FEFFF785FE10F00100D5
:1008300090F00100C0B20BB0BDE8F08F70B50020A1
:1008400004000A2C18DA2B48D0F810040500012007
:100850000600002D09D02800FFF70BFCA04202D1B2
:100860000020060001E06D68F3E7F6B2002E01D02B
:10087000200003E0641CE4E75FF0FF3070BD70B55A
:1008800004000D00FFF7DAFF060016F1010F01D199
:1008900030001AE030000100C9B22000FFF7E7FB8A
:1008A0001448D0F81004002805D11248C0F81044AC
:1008B0000020606008E00F48D0F8100440686060D5
:1008C0000C48D0F810044460300070BD10B50948E1
:1008D000D0F810440120074981F82004002C07D0EB
:1008E0002000FFF7C8FB2000FFF7B3FB6468F5E7C3
:1008F00010BD0000580800200C2700000025000053
:10090000E024000044000020E0240000700C0020DF
:100910006C0C0020740C0020640800204C270000A0
:100920004800002010B50400200000F081F910BD3F
:100930002DE9F84F04000D00A08A061F7019C01C95
:10094000B0FBF6F7200000F092F98046B8F1000FF6
:1009500001D100202CE0002088F80400012088F854
:100960000500A8F80660C146FFB2781E0090C9F8DD
:100970000040002083460098834518D2200000F0F4
:1009800076F98246BAF1000F0CD098F80500401CA9
:1009900088F80500C9F800A0CAF80040D1461BF14C
:1009A000010BE8E7404600F005F8002000E0404673
:1009B000BDE8F28F2DE9F84F040025006E79A046BE
:1009C000F6B2B6F1010A00200700574503D2D8F865
:1009D00000807F1CF9E7D8F800B0A046002007008F
:1009E000F6B2B74209D2D8F80000814641465846CF
:1009F00000F065F9C8467F1CF2E7BDE8F18F10B53D
:100A000004000121201D00F0B7F810BD70B582B0C0
:100A1000040025000121281D00F0BEF800906E465C
:100A20003078002802D12000FFF7C4FF73BD2DE904
:100A3000FB4F84B01400049801900198C588049F6E
:100A40000698001DB0FBF5F80698001DB0FBF5F107
:100A500005FB1106069820182818C01CB0FBF5F0FD
:100A60008DF80800B8F1000F03D03F68B8F1010815
:100A7000F8E75FF00009B5EB060B5C4501D2A34631
:100A8000FFE7002C29D09DF8400000280CD007EB90
:100A90000600001D0090059800EB090A5A460099CF
:100AA000504600F021F90BE005984844009007EB10
:100AB000060010F1040A5A460099504600F014F955
:100AC000002006003F68B4EB0B041BEB0909AC42A5
:100AD00001D2A346D5E7AB46D3E707B0BDE8F08F18
:100AE000F8B504000D0016001F00002000903B0028
:100AF000320029002000FFF79AFFF1BDF8B504008D
:100B00000D0016001F00012000903B00320029005C
:100B10002000FFF78CFFF1BDF0B4020052E8005F47
:100B20000E4642E8006797F0000FF7D13C00330013
:100B30002800F0BC70470000F0B4020052E8005FEB
:100B400045EA010642E8006797F0000FF6D13C0045
:100B500030002B00F0BC7047F0B4020052E8005F98
:100B600005EA010642E8006797F0000FF6D13C0065
:100B700033002800F0BC7047F0B4020052E8005F78
:100B800005EB010642E8006797F0000FF6D13C0044
:100B900030002B00F0BC7047F0B4020052E8005F58
:100BA000A5EB010642E8006797F0000FF6D13C0084
:100BB00030002B00F0BC704710B50400012120006C
:100BC000FFF7BAFF10BD10B5040000212000FFF7A9
:100BD000C3FF10BD72B609480068401C0749086091
:100BE000704706480068401E0449086003480068D2
:100BF000002800D162B6704700000000A412002057
:100C000010B50400FFF7E6FF10BD10B50400FFF7B4
:100C1000E8FF10BDC268C9B2808A00FB01F0104431
:100C20007047C268891A808AB1FBF0F0C0B2704781
:100C300010B40100002901D10E2016E088684B682D
:100C4000C01A020048680B6818601000421EC0B24B
:100C5000002806D008680068431C0C6823600270F6
:100C6000F3E700200B681871002010BC704738B5FE
:100C7000040000250020FFF7C3FF606821680968B1
:100C8000884217D220680068401E216808602068EA
:100C9000006801782000FFF7BDFF0500A06821680B
:100CA0000968401A216809790200D2B2914201D242
:100CB000216808710020FFF7A8FF280032BD70B539
:100CC00004000D000020FFF79BFF20680668701CE1
:100CD0002168086029002000FFF7A3FF3070002082
:100CE000FFF793FF70BDFEE762B38B0708D0521E7B
:100CF00011F8013B00F8013B00F024808B07F6D18E
:100D0000830740F0208000BF103A07D330B4B1E829
:100D10003810103AA0E83810F9D230BC530724BF7D
:100D2000B1E80810A0E8081044BF51F8043B40F8AF
:100D3000043BD20724BF31F8022B20F8022B44BF1A
:100D40000B7803707047083A07D3B1E80810083AE7
:100D500040F8043B40F804CBF7D25307E4E7000027
:100D600038B504000D00A068411CA16021680D5435
:100D7000A0686168884202D3200000F04BFA31BDC0
:100D80002DE9F84304000F0091461D005FF00008B4
:100D9000E80719D538780600F6B2002E08D07F1C77
:100DA00018F101083100C9B22000FFF7D9FFF1E7BF
:100DB000C84529D2B9F1000F26D0B9F10109202187
:100DC0002000FFF7CDFFF3E7002F03D0380000F03D
:100DD00043FA8046C84509D2B9F1000F06D0B9F1EF
:100DE000010920212000FFF7BBFFF3E73878060058
:100DF000F6B2002E08D07F1C18F101083100C9B2EC
:100E00002000FFF7ADFFF1E7BDE8F1832DE9F84FD2
:100E100004000D0016001F00DDF82880AA460120FE
:100E20008346B24504D3BAFBF6FA1BF1010BF8E78F
:100E3000BB4500D2BB460B98C0071BD4B8F1000FCE
:100E400018D00B98800705D5002F03D130208DF8DE
:100E5000000002E020208DF80000B8F1000F09D05A
:100E6000C34507D2B8F101089DF800102000FFF734
:100E700077FFF2E701208246022F01D37F1E04E0B4
:100E8000B5FBFAF08146B14502D306FB0AFAF3E757
:100E9000B5FBFAF081460AFB19550F4810F8091006
:100EA0002000FFF75DFFBAFBF6FABAF1000FEFD1B1
:100EB0000B98C0070ED5B8F1000F0BD0B8F1000F9A
:100EC00008D0C34506D2B8F1010820212000FFF761
:100ED00047FFF3E7BDE8F18F102800002DE9F04F40
:100EE00083B004000D0016001F00DDF83080DDF82F
:100EF0003490002D02D5D5F1000B00E0AB46012067
:100F00008246B34504DB9BFBF6FB1AF1010AF8E7C6
:100F1000BA4500D2BA46B8F1000F06D0002D02D46F
:100F20005FEA497001D5B8F101085FEA897001D51F
:100F3000002F11D05FEAC9700ED4B8F1000F0BD0AA
:100F4000B8F1000F08D0C24506D2B8F1010820213F
:100F50002000FFF705FFF3E7002D05D56D422D2199
:100F60002000FFF7FDFE06E05FEA497003D52B2164
:100F70002000FFF7F5FE19F00300022810D1002F22
:100F80000ED1B8F1000F0BD0B8F1000F08D0C24558
:100F900006D2B8F1010830212000FFF7E1FEF3E7A7
:100FA000CDF80490CDF800803B00320029002000ED
:100FB000FFF72CFFBDE8F78F2DE9F04F83B0040059
:100FC0008B461500BBF1000F00F022819BF800005A
:100FD00006001BF1010BF6B2002E00F01381F6B2F1
:100FE000252E40F0058100208046012007009BF857
:100FF00000000600F6B230002B280ED02D2802D0BB
:10100000302805D00EE058F001081BF1010B0BE071
:1010100058F002081BF1010B06E058F004081BF120
:10102000010B01E000200700002FE0D100208146E5
:10103000F6B22A2E0BD12868286028680068296833
:10104000091D296010EB09091BF1010B12E09BF847
:1010500000000600F6B2302E02DBF6B23A2E00DBBC
:1010600008E01BF1010B0A20F6B2B6F1300100FBDB
:101070000919DDE7002082469BF800000600F6B261
:101080002E2E14D11BF1010B9BF800000600F6B2C6
:10109000302E02DBF6B23A2E00DB08E01BF1010B2A
:1010A0000A20F6B2B6F1300100FB0A1AECE79BF811
:1010B00000000600F6B26C2E02D0F6B2682E05D102
:1010C0001BF1010B9BF800000600F3E7F6B23000BD
:1010D000252800F08580582845D063280CD0642846
:1010E0001BD0692819D070285FD073284ED075287E
:1010F00026D0782837D078E02868286028680068EB
:101100002968091D2960070038008DF800009DF846
:1011100000102000FFF724FE67E028682860286898
:1011200000682968091D29600700CDF80480CDF802
:10113000009053460A2239002000FFF7CFFE54E00A
:1011400028682860286800682968091D2960070048
:10115000CDF80480CDF8009053460A2239002000D3
:10116000FFF754FE41E02868286028680068296875
:10117000091D29600700CDF80480CDF80090534682
:10118000102239002000FFF741FE2EE02868286079
:10119000286800682968091D2960009043464A466E
:1011A00000992000FFF7ECFD1FE028682860286800
:1011B00000682968091D2960070030212000FFF719
:1011C000CFFD78212000FFF7CBFD00200190082003
:1011D00000900823102239002000FFF717FE04E0DA
:1011E00025212000FFF7BCFDFFE71BF1010B04E008
:1011F0003100C9B22000FFF7B3FD9BF800000028C2
:101200007FF4E4AE207B002802D0200000F002F83A
:10121000BDE8F78F10B50400A068002806D0A268CA
:1012200021682069636998470020A06010BD0CB454
:1012300038B504000D00002D09D006480068009064
:1012400004A800906A4629002000FFF7B5FE31BCD3
:101250005DF80CFB4429000000F10103810704D074
:1012600010F8011B89B18107FAD10268B2F101318E
:10127000914311F0803F04BF50F8042FF6E710F8B7
:10128000011B11B110F8011BFBE7C01A70470000E9
:10129000012110F01F029140DFF8E42340B243091E
:1012A00042F823107047012110F01F029140DFF82F
:1012B000D42340B2430942F82310704710B440B21F
:1012C000002809D54A01DFF8C03340B210F00F04FE
:1012D000234403F8042C04E04A01DFF8B03340B2A1
:1012E0001A5410BC704738B504000D00EDB2290047
:1012F000200040B2FFF7E2FF31BD10B5040020002E
:1013000040B2FFF7D0FF200040B2FFF7C1FF10BD91
:1013100070B50400002C08D0DFF8740350F001050C
:10132000402000FB04F63000A84770BD0121DFF823
:101330006423C0B211507047DFF8581300B2085848
:10134000002801D0012000E00020C0B2704781B029
:101350000021DFF8402300B21150DFF8381300B24B
:1013600009580091009901B0704710B4D2B2DFF86B
:101370002833C0B2040123445A60C9B2DFF81833DD
:10138000C0B20401195110BC7047DFF81013086097
:101390007047DFF80C13086070470120DFF8041372
:1013A000086070470020DFF8FC1208607047DFF823
:1013B000F8221060DFF8F42211607047C0B2DFF845
:1013C000F01208607047C0B2DFF8E812086070479A
:1013D00038B504000D00287810F003006978090181
:1013E00011F030010843A978090211F4E0610843C3
:1013F000E978090311F4805108432979090411F4AB
:10140000E02108436979090511F480110843A9799D
:10141000090611F080710843DFF87C12E4B2220162
:10142000114488602A7AE9792000C0B2FFF79DFF55
:1014300031BD70B504000D00DFF87C0290F82C007F
:10144000002803D008200600300048E0DFF86802DA
:1014500005602078FFF7B2FF6078FFF7B4FFE0780F
:10146000DFF8541281F82E000120DFF84C1281F8C9
:101470002C000020DFF8401208740020DFF838123A
:1014800081F82D000020DFF8301248610020DFF8DD
:10149000281281F82F007FF00040FFF77AFF4FF409
:1014A0008270FFF754FF4FF48070FFF750FFA17870
:1014B0000720FFF718FF0720FFF71FFF0220FFF7A5
:1014C00064FFDFF8F40190F82E00002802D001201C
:1014D000FFF75BFFFFF761FF00200600300070BDE3
:1014E00070B504000D00DFF8D001007C002803D0A7
:1014F0001120060030003CE02879002802D028792D
:10150000012801D1FFF74EFFDFF8AC01E4B200EB98
:101510004400007F002808D1DFF89C0190F82D00DE
:10152000401CDFF8941181F82D00E879DFF888116C
:10153000E4B201EB44010877287ADFF87C11E4B2C9
:1015400001EB4401487729002000C0B2FFF740FFBB
:101550002A7AE9792000C0B2FFF707FF287900282E
:1015600002D02879012801D1FFF717FF00200600DB
:10157000300070BD2DE9F04104000D00DFF83801A6
:10158000007C002803D011200600300076E0012006
:10159000DFF8241108740320FFF7FBFE0121280067
:1015A000FFF705FFDFF8100190F82D0002280DDB92
:1015B0005FF00008B8F1080F08D200220021404671
:1015C000C0B2FFF7D2FE18F10108F3E73A48E4B2DF
:1015D00000EB4400427F3848E4B200EB4400017F56
:1015E0002000C0B2FFF7C1FE0020FFF79FFE0420DD
:1015F000FFF79CFE0020804642F2107007004FF477
:101600008270FFF799FE002802D00120804605E095
:101610000020FFF77DFE7F1E002FF0D14FF4807079
:10162000FFF795FE4FF48270FFF791FE224890F885
:101630002D00022810DB0027082F0DD21E4800EBDA
:101640004700427F1C4800EB4700017F3800C0B2D2
:10165000FFF78BFE7F1CEFE7174890F82E0000285D
:1016600003D00320FFF791FE02E00220FFF78DFE7A
:10167000002011490874002006003000BDE8F08108
:1016800000E100E080E200E018ED00E000E400E0AE
:1016900030290000007000401075004004730040C5
:1016A00008730040007500402C7600403076004002
:1016B000F0750040F475004034120020704738B5D2
:1016C00004000D00E088002807D08A480090E388D5
:1016D000894A8A492800FFF7AAFD207A05281FD0E9
:1016E000607A00280BD0217AA088FEF73BFD844960
:1016F000C0B251F8202079A12800FFF798FD216899
:101700002800FFF7DBFF0021A088FEF718FD03008B
:101710007C48217A50F821207B492800FFF787FD7B
:1017200031BD70B504000D001600207A05280DD0DB
:10173000607A002805D07248026868A12800FFF787
:1017400076FD67A12800FFF772FD06E0F6B2002ED5
:1017500003D063A12800FFF76AFD2800FFF75AFDB8
:1017600070BD2DE9F04385B004000D0016001F0088
:10177000DDF8308098F80C90002088F80C00414685
:101780003800FFF79CFF002E09D0022E12D00BD399
:10179000042E1FD015D3062E34D026D341E02100CD
:1017A0004046FFF744FD3CE02A6821004046FFF731
:1017B0003EFD36E06B682A6821004046FFF737FDA2
:1017C0002FE0A86800906B682A6821004046FFF768
:1017D0002EFD26E0E8680190A86800906B682A68F2
:1017E00021004046FFF723FD1BE028690290E868CE
:1017F0000190A86800906B682A6821004046FFF7B6
:1018000016FD0EE06869039028690290E86801906F
:10181000A86800906B682A6821004046FFF707FD22
:10182000FFE7002241463800FFF77BFF88F80C9065
:1018300005B0BDE8F0832DE9F04704000D00160067
:101840001F00092D48D297F80C800020387339000A
:101850003000FFF734FF00208146B9F1080F0FD2A6
:10186000A94506D214F8092028493800FFF7DFFC03
:1018700003E01CA13800FFF7DAFC19F10109ECE7DD
:1018800019A13800FFF7D3FC00208146B9F1080FF9
:101890001BD2A94512D214F809A05FFA8AFA504661
:1018A00000F036F8002803D05FFA8AFA524600E0CA
:1018B0002E220EA13800FFF7BAFC03E00CA138007D
:1018C000FFF7B5FC19F10109E0E70122390030000A
:1018D000FFF727FF87F80C80BDE8F087257300002D
:1018E0000D0A0000202020007C000000256300007D
:1018F00020000000D8280000E82800001C26000076
:10190000200000200C0000205828000020290000A2
:10191000A0F120015F2924BFA0F161011A2914D38D
:10192000A0F141011A2924BFA0F121010F290CD3F4
:10193000A0F13A01072924BFA0F15B01062904D3D5
:101940007B3804288041C00F704701207047000099
:1019500010B5DFF8F8010400022020610220606168
:10196000DFF8EC01A061DFF8EC01E0614FF480608A
:1019700020620020A062002060620220E062DFF8A6
:10198000D001A064DFF8D001E064102020650020C1
:10199000A065002060650220E06548A1E01D00F020
:1019A000DFF8DFF8B811200000F0DAF82020A0718D
:1019B00010BD2DE9F84F04000D00160000200700AF
:1019C000E068814620698046C14504D2B8EB090031
:1019D000401E824606E0A068B0EB090018EB00004C
:1019E000401E8246A068B0EB0900824502D3A06881
:1019F000B0EB090AB24500D3B2460095606800EB2F
:101A0000090B524600995846FFF76EF91AEB070783
:101A10005544B6EB0A061AEB0909A068814501D1C5
:101A200000208146C4F80C90002ECBD13800BDE8D0
:101A3000F28F2DE9F84F04000D001600E068070052
:101A4000A068C01B804646450AD2606800EB0709C3
:101A5000320029004846FFF747F9F019E06017E027
:101A6000C346D846606800EB07094246290048464D
:101A7000FFF73AF9B6EB0800834605EB0809D4F8FE
:101A800004A05A4649465046FFF72EF9C4F80CB058
:101A9000BDE8F18F10B401000C692200CC6823006E
:101AA000934205D38C68641EE41A1419200002E0E6
:101AB000D41A641E200010BC704700005254540019
:101AC0002DE9F04704000D001600A946DFF87C0060
:101AD000182101FB04F1084418308246DAF814009A
:101AE000002803D0022820D010D325E05046FFF76D
:101AF000D1FF8046B04502D20020070005E0370044
:101B0000320049465046FFF794FF17E05046FFF772
:101B1000C1FF8046B04501D2474600E037003A0099
:101B200049465046FFF785FF08E0320049465046D7
:101B3000FFF73FFF070001E0002007003800BDE885
:101B4000F08780B5FFF704FF01BD0000BC11002045
:101B50007C2800007C0C0020841200203829000022
:101B60005FEA000C830706D011F8013B00F8013B47
:101B7000B3B18307F8D10A68B2F1013323EA020353
:101B800013F0803F02BF40F8042B51F8042FF3E715
:101B900011F8013B00F8013B13B111F8013BF9E7E3
:101BA000604670470000000070280000010000003F
:101BB00040240000020000003C230000030000005D
:101BC00060270000040000007427000005000000EA
:101BD00088270000060000003426000007000000EF
:101BE0004C260000080000006426000009000000E8
:101BF0001C2500000A0000007C2600000B000000ED
:101C0000942600000C0000009C2700000D0000003E
:101C1000B02700000E000000202800000F00000088
:101C2000C427000010000000AC26000011000000D6
:101C30003028000012000000C4260000130000003D
:101C4000D827000080000000602300008100000011
:101C500038250000820000005425000083000000A9
:101C60006024000084000000842300008500000040
:101C7000C422000086000000DC2600009000000066
:101C80008024000091000000A024000092000000C9
:101C9000F426000000820000C02400000182000041
:101CA00070250000028200008C25000000840000E6
:101CB000A8230000018400004422000002840000E8
:101CC000EC22000003840000CC23000070B5040067
:101CD000002C07D0364850F00105402000FB04F6E8
:101CE0003000A84770BD38B504000D00002C01D1AC
:101CF0003048040029002000FFF79BFB32BD10B5DF
:101D00000400002C06D04FF47A70FFF7DFFF641E4A
:101D1000002CF8D110BD3EB5684629492CC92CC00D
:101D20000C390C3800210020FFF7DDFF04002500EE
:101D3000002D04D0204A2721280000F049F86946E8
:101D40000020FFF7CDFB04002500002D04D01A4A27
:101D50002A21280000F03CF837BD80B5174909203A
:101D6000FFF708FC01BD80B500210020FEF788F9CF
:101D700000F045F8134914480088000450F00300AF
:101D8000FEF795FBFFF7C7FFFFF7E7FF0B48B0F93A
:101D900000200E490C480088000450F00300FEF7B4
:101DA00090FB4FF47A70FFF7AAFFEDE70000000008
:101DB000A02800004029000078210000A81200207F
:101DC000402800009428000048000020002800005F
:101DD00030B403000C00150000B583B002900091F0
:101DE0000192034871466A4600F01AF803B000BD3C
:101DF0000140000030BC704701214172704710B5AE
:101E00005FF0FF3400F07FF804210448FEF737FD4F
:101E100004000248FFF7F0FF10BD000000000020A2
:101E200070B584B004000D00160072B6FEF74EFDCA
:101E3000FEF78EFB0028FBD1200044F20101401A7E
:101E40000CD0401E25D1338872681C491C4800887C
:101E5000000450F00100FEF741FB23E0B06800F001
:101E60009BF8029531680191716800910300B26896
:101E7000144913480088000450F00100FEF73DFBB0
:101E800011490F480088000450F00100FEF70FFBD5
:101E900008E02A000D490A480088000450F00100BB
:101EA000FEF70FFB0A480068C00700D500BE3200ED
:101EB0002900200000F09EF87FBD00BF0025000033
:101EC000480000209C22000024270000EC25000090
:101ED000F0ED00E070B50400002C07D0294850F068
:101EE0000105402000FB04F63000A84770BD10B586
:101EF0000400002C06D04FF47A70FFF7EBFF641E4D
:101F0000002CF8D110BD80B5FFF71BFE01BD2DE9F7
:101F1000F84304000D009046B8F1000F24D00027CC
:101F20005FF00309424605EB07010020FFF7C8FDFB
:101F30000600F719B8EB0608002E0FD112480078FA
:101F4000002811D00120FFF7D2FFB9F10109B9F142
:101F5000000F03D100200C49087005E001200A4958
:101F60000870B8F1000FDDD1BDE8F18338B5040089
:101F70000D00064800908023054A2900200000F04B
:101F80007DF831BDB0280000AA1200200F1F00000C
:101F90003C1100207047704710B50400200000F08D
:101FA00005F8002801D11048FFE710BD10B401006A
:101FB0000E4802000E4803009A4212D2981AC0102E
:101FC000022490FBF4F002EBC0000468A14201D2AD
:101FD0000300F1E78C4202D208300200ECE74068CF
:101FE00000E0002010BC7047EC270000A41B00009C
:101FF000CC1C000010B489B001238DF800309DF88E
:1020000000301D4B18601C4B59601B4B9A6003003D
:1020100044F201041B1B0ED05B1E1DD1164BDA606F
:10202000154BDB681B88144CA361134BDB685B68A2
:10203000114CE36110E0104B1A610F4B1B699B6858
:102040000D4C63610C4B1B691B680B4CA3610A4B65
:102050001B695B68084CE36101AB074C94EC080B0F
:1020600083EC080B72B69DF80030002BFBD162B6F2
:1020700009B010BC70470000641200202DE9F04F39
:1020800095B004000D0016001F00DDF878802800D0
:10209000FEF7B5FC09A8374991EC060B80EC060B5E
:1020A00009960A97CDF838805FF000094B46082260
:1020B00001A92800FEF722FD08208146039804901C
:1020C000BDF80800ADF81400BDF80A00ADF8160020
:1020D00000208DF81900019810F0030001281CD190
:1020E00001985FEA902A0198C0F3C2008DF81800A9
:1020F0000198C0F3831B4B465FEA8B020FA92800AF
:10210000FEF7FCFC19EB8B0909A8009004AB5A46BA
:102110000FA95046FFF725FB26E0019810F00300B9
:10212000022821D101985FEA905A0198C0F3C200B9
:102130008DF81800BAF1080F01D2D34601E05FF024
:10214000080B4B465A4607A92800FEF7D7FC1BEBA5
:102150000909BAEB0B0A09AB04AA594607A8FFF70D
:102160006AFBBAF1000FE5D12800FEF74FFC15B06D
:10217000BDE8F08F04260000443A5C476974687536
:10218000625C73616164635F73696D706C655C6EE2
:10219000726635325F73696D706C655F736161641F
:1021A000635C6669726D776172655C6961725F70AC
:1021B000726F6A6563745C6D61696E2E6300000006
:1021C0004C2800000000000000000000000000009B
:1021D000B8280000C0280000C8280000D02800004F
:1021E000D8280000E0280000E8280000F0280000BF
:1021F000F82800000029000008290000102900002C
:102200001829000019E050F8041BCB0744BFA9F1BE
:1022100001035918121F0023042A41F8043BF9D284
:102220005FEA827C0B4604D54FF0000CA1F800C099
:102230009B1CD10744BF0021197050F8042B002AC1
:10224000E1D170474E52465F4552524F525F424C69
:10225000455F495053505F4348414E4E454C5F41A6
:102260004C52454144595F4558495354530000006E
:1022700010B450F8041B79B1026843680244083076
:10228000DC0744BFA9F10104E31852F8044B43F8FA
:10229000044B091FF9D1ECE710BC70474552524F6F
:1022A00052202575205B25735D2061742025733ACB
:1022B00025750D0A50432061743A20307825303856
:1022C000780000004E52465F4552524F525F4D4FCC
:1022D00044554C455F414C52454144595F494E4934
:1022E0005449414C495A4544000000004E52465F53
:1022F0004552524F525F424C455F495053505F4CDC
:10230000494E4B5F444953434F4E4E454354454419
:102310000000000010B5074979441831064C7C4490
:10232000163404E00A68081D114488470146A1429A
:10233000F8D110BDE0000000080100004E52465FD9
:102340004552524F525F534F4654444556494345B8
:102350005F4E4F545F454E41424C454400000000E3
:102360004E52465F4552524F525F4D4F44554C4579
:102370005F4E4F545F494E495449414C495A454478
:10238000000000004E52465F4552524F525F4D557D
:102390005445585F434F4E445F494E49545F464150
:1023A000494C4544000000004E52465F4552524F92
:1023B000525F424C455F495053505F52585F504BFB
:1023C000545F5452554E4341544544004E52465F6B
:1023D0004552524F525F424C455F495053505F50F7
:1023E0004545525F52454A4543544544000000006C
:1023F0004EF68851CEF20001086840F47000086083
:10240000BFF34F8FBFF36F8F4FF00070E1EE100AF4
:1024100070470000F1FDFFFF1000000044000020A5
:10242000540A0000580800200000000045FEFFFF8D
:10243000440000008CFDFFFF0000002000000000B1
:102440004E52465F4552524F525F5356435F48418A
:102450004E444C45525F4D495353494E470000008E
:102460004E52465F4552524F525F4D555445585F4C
:10247000554E4C4F434B5F4641494C45440000008C
:102480004E52465F4552524F525F4150495F4E4F48
:10249000545F494D504C454D454E54454400000055
:1024A0004E52465F4552524F525F46454154555237
:1024B000455F4E4F545F454E41424C45440000003D
:1024C0004E52465F4552524F525F4452565F5457E8
:1024D000495F4552525F4F56455252554E000000DB
:1024E0003827000000000003482900000000030313
:1024F00064280000000000002829000000000000FF
:10250000415353455254494F4E204641494C45444E
:102510002061742025733A25750000004E52465FF5
:102520004552524F525F494E56414C49445F4C45CB
:102530004E475448000000004E52465F4552524FED
:10254000525F4D555445585F494E49545F46414985
:102550004C4544004E52465F4552524F525F4D55D6
:102560005445585F4C4F434B5F4641494C454400EE
:102570004E52465F4552524F525F4452565F545737
:10258000495F4552525F414E41434B004E52465FB8
:102590004552524F525F4452565F5457495F45521D
:1025A000525F444E41434B0000F00BF8002801D02D
:1025B000FFF7B0FE0020AFF30080FFF7D4FB00F080
:1025C00002F80120704700F001B8000007463846C5
:1025D00000F002F8FBE7000080B5AFF30080024A8C
:1025E00011001820ABBEFBE726000200554E4B4EF3
:1025F0004F574E204641554C542061742030782569
:10260000303858000000000000000000000000000A
:1026100000000000000000000000000025734C6F67
:1026200067732064726F70706564202825642925A3
:10263000730D0A004E52465F4552524F525F4E4F45
:10264000545F535550504F52544544004E52465FCC
:102650004552524F525F494E56414C49445F50419A
:1026600052414D004E52465F4552524F525F494EC5
:1026700056414C49445F5354415445004E52465FC5
:102680004552524F525F494E56414C49445F464C69
:10269000414753004E52465F4552524F525F494E9A
:1026A00056414C49445F4441544100004E52465FFC
:1026B0004552524F525F494E56414C49445F414446
:1026C000445200004E52465F4552524F525F434FB4
:1026D0004E4E5F434F554E54000000004E52465F31
:1026E0004552524F525F53544F524147455F4655F2
:1026F0004C4C00004E52465F4552524F525F494F7C
:102700005F50454E44494E47000000009C12002097
:10271000941200209C1200207C1000204400002015
:1027200018000000456E64206F66206572726F723B
:10273000207265706F72740062616C6C6F632E6CD6
:102740006F675F6D656D706F6F6C00004261636BEA
:10275000656E647320666C757368656400000000C4
:102760004E52465F4552524F525F494E5445524E6B
:10277000414C00004E52465F4552524F525F4E4F01
:102780005F4D454D000000004E52465F4552524F8E
:10279000525F4E4F545F464F554E44004E52465F77
:1027A0004552524F525F444154415F53495A45008C
:1027B0004E52465F4552524F525F54494D454F5518
:1027C000540000004E52465F4552524F525F464FF2
:1027D0005242494444454E004E52465F4552524F84
:1027E000525F5245534F555243455300556E6B6EE1
:1027F0006F776E206572726F7220636F6465000080
:102800004144432056616C75653A20256400000000
:102810003031323334353637383941424344454616
:102820004E52465F4552524F525F4E554C4C00003F
:102830004E52465F4552524F525F42555359000027
:102840000000000002000009000000006D1F0000F1
:10285000971F0000951F00003C25733E2025733A0A
:10286000200000007077725F6D676D7400000000DB
:102870004E52465F53554343455353005465726D62
:10288000696E616C00000000AFF30080FFF7B0FDDF
:10289000FFF78AFE53746172740D0A000000000095
:1028A0000338FDD870470000000000000000000061
:1028B0000338FDD8704700006572726F7200000027
:1028C0007761726E696E6700696E666F0000000066
:1028D00064656275670000001B5B306D00000000DE
:1028E0001B5B313B33306D001B5B313B33316D0083
:1028F0001B5B313B33326D001B5B313B33336D006F
:102900001B5B313B33346D001B5B313B33356D005A
:102910001B5B313B33366D001B5B313B33376D0046
:10292000202530327800000053414144430000002C
:102930000338FDD870470000534547474552000013
:0C29400001000600000000006170700043
:040000050000288946
:00000001FF
